S01A00004D6F76696E672D4361722D50726F6A6563742E7372656353
S11300000C9446000C947E050C9463000C946300DD
S11300100C9463000C9463000C9463000C946300D0
S11300200C9463000C948F090C9463000C94BF0926
S11300300C9463000C9463000C9463000C946300B0
S11300400C9463000C9463000C9463000C946300A0
S11300500C946300BE05C905D405E206DF05E2067B
S1130060EA05F50500060B0621062C063706E4060C
S11300704206E4064D06580663066E0684068F069D
S11300809A06A506B006BB06C606D10611241FBEF5
S1130090CFE5D8E0DEBFCDBF10E0A0E6B0E0EEE4EF
S11300A0F5E102C005900D92A438B107D9F720E01C
S11300B0A4E8B0E001C01D92A839B207E1F70E949C
S11300C012040C94A50A0C9400001092850010925E
S11300D0840081E0809360000895809185008F5FA3
S11300E0809385006CEB70EF81E00E940B0408950F
S11300F0809184008F5F8093840060EF70E080E0E3
S11301000E940B040895CF93C0E009C08C2F90E0A7
S1130110880F991F85589F4F0E941C03CF5FC430DE
S1130120A8F3C0E009C08C2F90E0880F991F89586C
S11301309F4F0E940902CF5FC230A8F364E770E0CA
S113014081E790E00E946F0289E690E00E94D40368
S113015081E690E00E94D403E6E8F0E0108282E0B9
S1130160818365E670E0CF010E94EB02CF91089590
S11301708BE790E00E9434038DE790E00E94340303
S113018081E890E00E9434038FE790E00E944C03E2
S113019064E770E081E790E00E94CC020895CF9379
S11301A0DF931F92CDB7DEB781E0898386E890E0C4
S11301B00E94120381E00E9404040E94B800BE0160
S11301C06F5F7F4F87E790E00E941502898181115C
S11301D002C010926000109285000F90DF91CF91C1
S11301E008958BE790E00E9434038DE790E00E942D
S11301F04C0381E890E00E9434038FE790E00E9472
S113020034031092840060E087E00E94F90306C082
S113021064E770E081E790E00E948E0280918400A0
S11302208630B0F306C064E770E081E790E00E9496
S1130230CC0280918400863020F0809184008B3041
S113024090F380E00E9404041092840008958BE7E8
S113025090E00E944C038DE790E00E94340381E813
S113026090E00E9434038FE790E00E9434031092E0
S1130270840060E087E00E94F90306C064E770E050
S113028081E790E00E948E02809184008430B0F374
S113029006C064E770E081E790E00E94CC028091A0
S11302A08400843020F0809184008B3090F380E0CF
S11302B00E9404041092840008958BE790E00E9449
S11302C034038DE790E00E94340381E890E00E94BB
S11302D04C038FE790E00E9434031092840060E0A6
S11302E087E00E94F90306C064E770E081E790E0CC
S11302F00E94AD02809184008630B0F306C064E7AA
S113030070E081E790E00E94CC0280918400863006
S113031020F0809184008B3090F380E00E940404EC
S113032010928400089586E890E00E94080361E03A
S113033087E00E94F90380918500823008F457C059
S113034080918500893018F40E94F100089580910D
S11303508500893038F0809185008A3018F40E9435
S1130360B8000895809185008A3038F08091850026
S11303708B3018F40E945D010895809185008B30C4
S113038038F0809185008C3018F40E94B8000895EC
S1130390809185008C3038F080918500803118F48C
S11303A00E942701089580918500803138F0809162
S11303B08500813118F40E94B80008958091850069
S11303C0813138F080918500823118F40E945D01FA
S11303D0089580918500823138F0809185008331C1
S11303E018F40E94B800089582E08093850008956F
S11303F00E94830002C00E94CF008091600081307F
S113040019F4F9CF0E949301809160008823D1F3FD
S1130410F4CF009741F0FC0140E0618180810E94AB
S1130420170480E0089581E00895AF92BF92CF92BF
S1130430DF92EF92FF920F931F93CF93DF931F925C
S1130440CDB7DEB70097E1F161157105D9F16B0104
S11304507C01AE014F5F5F4FFC01618180810E948E
S1130460CC048981882391F026C0AE014F5F5F4F91
S1130470F701618180810E94CC048981811103C0CC
S1130480FFEFAF1ABF0A0F5F1F4F05C0AA24A39442
S1130490B12C00E010E00436110538F384E1A8160D
S11304A0B10420F0F601108280E00DC081E0F60175
S11304B0808380E008C081E0F601808380E003C08F
S11304C081E001C081E00F90DF91CF911F910F91E6
S11304D0FF90EF90DF90CF90BF90AF9008951F935F
S11304E0CF93DF93009779F06115710571F0EB01FB
S11304F00E946403182FCE010E946403111107C0E7
S1130500811107C007C082E005C082E003C081E01A
S113051001C081E0DF91CF911F9108951F93CF9384
S1130520DF93009779F06115710571F0EB010E947A
S11305308003182FCE010E948003111107C081117E
S113054007C007C082E005C082E003C081E001C0AB
S113055081E0DF91CF911F9108951F93CF93DF9393
S1130560009779F06115710571F0EB010E94800329
S1130570182FCE010E949C03111107C0811107C0DE
S113058007C082E005C082E003C081E001C081E0D1
S1130590DF91CF911F9108951F93CF93DF9300971D
S11305A079F06115710571F0EB010E94B803182F01
S11305B0CE010E94B803111107C0811107C007C002
S11305C082E005C082E003C081E001C081E0DF91E8
S11305D0CF911F9108950F931F93CF93DF930097AB
S11305E079F06115710571F08B01EC0169818881E5
S11305F00E943705B80188810E946C0580E003C021
S113060082E001C082E0DF91CF911F910F910895A4
S1130610009731F0FC0180810E94500580E008952C
S113062082E00895009731F0FC0180810E945E050C
S113063080E0089582E00895009771F0FC016181E3
S113064041E080810E941704882341F0813041F009
S1130650823041F080E0089583E0089580E00895B9
S113066081E0089582E00895009771F0FC016181B2
S113067040E080810E945104882341F0813041F0A0
S1130680823041F080E0089583E0089580E0089589
S113069081E0089582E00895009771F0FC01618182
S11306A041E080810E945104882341F0813041F06F
S11306B0823041F080E0089583E0089580E0089559
S11306C081E0089582E008951F93CF93DF93EC01B6
S11306D0698141E088810E941704182F6A8141E0F2
S11306E088810E941704111104C0882321F081E03D
S11306F003C081E001C080E0DF91CF911F91089594
S11307001F93CF93DF93EC01698141E088810E94BC
S11307105104182F6A8140E088810E94510411110C
S113072004C0882321F081E003C081E001C080E09F
S1130730DF91CF911F9108951F93CF93DF93EC0125
S1130740698140E088810E945104182F6A8141E048
S113075088810E945104111104C0882321F081E092
S113076003C081E001C080E0DF91CF911F91089523
S11307701F93CF93DF93EC01698140E088810E944D
S11307805104182F6A8140E088810E94510411119C
S113079004C0882321F081E003C081E001C080E02F
S11307A0DF91CF911F9108951F93CF93DF93FC01A5
S11307B020812330C8F4EC01E8E8F0E0208389814B
S11307C082838A819B81978386838C819D81918793
S11307D08087CF010E940C0A182F68818E819F8127
S11307E00E94EF09812B01C081E0DF91CF911F911D
S11307F008958A3028F4633028F40E944D0A08953D
S113080081E0089581E00895833018F40E94720A0B
S1130810089581E00895833018F40E945C0A0895D5
S113082081E008950E94F80180E090E00895683026
S1130830A0F581110BC08AB350E002C0440F551FCC
S11308406A95E2F7482B4ABB80E00895813059F459
S113085087B350E002C0440F551F6A95E2F7482B56
S113086047BB80E00895823059F484B350E002C05D
S1130870440F551F6A95E2F7482B44BB80E0089566
S1130880833069F481B350E002C0440F551F6A9568
S1130890E2F7482B41BB80E0089581E0089582E0AF
S11308A00895683008F074C081111BC0413061F4B0
S11308B02BB381E090E002C0880F991F6A95E2F79C
S11308C0822B8BBB80E008952BB381E090E002C0C3
S11308D0880F991F6A95E2F7809582238BBB80E08D
S11308E008958130D9F4413061F428B381E090E077
S11308F002C0880F991F6A95E2F7822B88BB80E0BB
S1130900089528B381E090E002C0880F991F6A958A
S1130910E2F78095822388BB80E008958230D9F481
S1130920413061F425B381E090E002C0880F991F43
S11309306A95E2F7822B85BB80E0089525B381E0B8
S113094090E002C0880F991F6A95E2F78095822390
S113095085BB80E008958330E9F4413061F422B32B
S113096081E090E002C0880F991F6A95E2F7822B1C
S113097082BB80E0089522B381E090E002C0880F3A
S1130980991F6A95E2F78095822382BB80E00895DF
S113099081E0089582E00895683008F064C0811110
S11309A017C079B381E090E09C01062E02C0220FAB
S11309B0331F0A94E2F7872F90E08223932302C027
S11309C0959587956A95E2F7FA01808380E008950A
S11309D08130B9F476B381E090E09C01062E02C028
S11309E0220F331F0A94E2F7872F90E08223932388
S11309F002C0959587956A95E2F7FA01808380E0B5
S1130A0008958230B9F473B381E090E09C01062E1E
S1130A1002C0220F331F0A94E2F7872F90E082234B
S1130A20932302C0959587956A95E2F7FA0180832E
S1130A3080E008958330C9F470B381E090E09C01B4
S1130A40062E02C0220F331F0A94E2F7872F90E08C
S1130A508223932302C0959587956A95E2F7FA015C
S1130A60808380E0089581E0089582E008958823DA
S1130A7019F0813041F012C085B7682B65BF8FB77C
S1130A8080688FBF0BC085B770E0660F771F660F55
S1130A90771F682B65BF8FB780688FBF80E008958C
S1130AA0882319F0813029F007C08BB780648BBF8D
S1130AB003C08BB780688BBF80E00895882319F04A
S1130AC0813029F007C08BB78F7B8BBF03C08BB7F6
S1130AD08F778BBF80E00895882319F0813049F027
S1130AE00BC08BB78F7B8BBF709393006093920086
S1130AF003C08BB78F778BBF80E008951F920F924E
S1130B000FB60F9211242F933F934F935F936F93DC
S1130B107F938F939F93AF93BF93EF93FF93E09152
S1130B209200F09193000995FF91EF91BF91AF91DD
S1130B309F918F917F916F915F914F913F912F91F1
S1130B400F900FBE0F901F901895833008F034C19A
S1130B506A3008F033C1813009F468C020F0823073
S1130B6009F4C7C02DC1862F90E08A30910508F0A2
S1130B7029C1FC01E65DFF4F0C949F0A83B78E7F69
S1130B8083BF83B78D7F83BF83B78B7F83BF80E0B1
S1130B90089583B7816083BF83B78D7F83BF83B795
S1130BA08B7F83BF80E0089583B78E7F83BF83B735
S1130BB0826083BF83B78B7F83BF80E0089583B750
S1130BC0816083BF83B7826083BF83B78B7F83BF1A
S1130BD080E0089583B78E7F83BF83B78D7F83BF03
S1130BE083B7846083BF80E0089583B7816083BF47
S1130BF083B78D7F83BF83B7846083BF80E008950C
S1130C0083B78E7F83BF83B7826083BF83B78460DB
S1130C1083BF80E0089583B7816083BF83B7826018
S1130C2083BF83B7846083BF80E00895862F90E0FC
S1130C308A30910508F0C8C0FC01EC5CFF4F0C94AD
S1130C409F0A8EB58E7F8EBD8EB58D7F8EBD8EB57F
S1130C508B7F8EBD80E008958EB581608EBD8EB58C
S1130C608D7F8EBD8EB58B7F8EBD80E008958EB551
S1130C708E7F8EBD8EB582608EBD8EB58B7F8EBD10
S1130C8080E008958EB581608EBD8EB582608EBD84
S1130C908EB58B7F8EBD80E008958EB58E7F8EBD20
S1130CA08EB58D7F8EBD8EB584608EBD80E0089537
S1130CB08EB581608EBD8EB58D7F8EBD8EB5846000
S1130CC08EBD80E008958EB58E7F8EBD8EB5826018
S1130CD08EBD8EB584608EBD80E008958EB5816032
S1130CE08EBD8EB582608EBD8EB584608EBD80E073
S1130CF00895862F90E08830910508F067C0FC01C4
S1130D00E25CFF4F0C949F0A85B58B7F85BD85B54A
S1130D108D7F85BD85B58E7F85BD80E0089585B5C1
S1130D20846085BD85B58D7F85BD85B58E7F85BD88
S1130D3080E0089585B58B7F85BD85B5826085BDCE
S1130D4085B58E7F85BD80E0089585B5846085BDB9
S1130D5085B5826085BD85B58E7F85BD80E00895AB
S1130D6085B58B7F85BD85B58D7F85BD85B5816056
S1130D7085BD80E0089585B5846085BD85B58D7F8A
S1130D8085BD85B5816085BD80E0089585B58B7F7F
S1130D9085BD85B5826085BD85B5816085BD80E0F2
S1130DA0089585B5846085BD85B5826085BD85B5AA
S1130DB0816085BD80E0089581E0089581E0089513
S1130DC081E0089581E0089581E0089581E0089527
S1130DD0FC01892B09F493C28081833008F091C20D
S1130DE09281943008F08FC22381243008F08DC2A0
S1130DF0813009F4ADC020F0823009F4D8C187C233
S1130E009130D9F030F0923009F469C09330F1F1A7
S1130E1080C283B7806883BF83B78F7B83BF83B768
S1130E20877F83BF83B78F7E83BF83B78F7D83BF65
S1130E3089B7816089BF80E0089583B7806483BFE8
S1130E4083B7877F83BF8581811108C083B78F7E75
S1130E5083BF83B78F7D83BF80E015C0823041F4A8
S1130E6083B78F7E83BF83B7806283BF80E00BC06C
S1130E70833041F483B7806183BF83B7806283BFCB
S1130E8080E001C081E090859CBF089583B78064B1
S1130E9083BF83B7886083BF8481811108C083B70F
S1130EA08F7E83BF83B78F7D83BF80E015C0823080
S1130EB041F483B78F7E83BF83B7806283BF80E0B2
S1130EC00BC0833041F483B7806183BF83B78062F2
S1130ED083BF80E001C081E090859CBF089583B703
S1130EE0806883BF83B78F7B83BF83B7886083BFEA
S1130EF08381813071F028F0823099F08330C9F019
S1130F0020C083B78F7E83BF83B78F7D83BF80E08C
S1130F1019C083B7806183BF83B78F7D83BF80E0AF
S1130F2011C083B78F7E83BF83B7806283BF80E0A5
S1130F3009C083B7806183BF83B7806283BF80E0C9
S1130F4001C081E090859CBF99B7926099BF0895D4
S1130F50913059F138F0923009F4CDC0933009F44E
S1130F6077C0D9C18FB588608FBD8FB584608FBDC0
S1130F708FB58E7F8FBD8FB58D7F8FBD8EB58F7EE4
S1130F808EBD8EB5877F8EBD8FB58F7B8FBD8FB5A0
S1130F908F778FBD8FB58F7E8FBD8FB58F7D8FBDC2
S1130FA089B7846089BF80E008958FB581608FBD63
S1130FB08FB58D7F8FBD8EB58F7E8EBD8EB5877FAD
S1130FC08EBD85818130A1F028F08230F9F0833024
S1130FD059F138C08FB58F7B8FBD8FB58F778FBD9B
S1130FE08FB58F7E8FBD8FB58F7D8FBD80E02BC079
S1130FF08FB580648FBD8FB58F778FBD8FB58061BE
S11310008FBD8FB58F7D8FBD80E01DC08FB58F7B69
S11310108FBD8FB580688FBD8FB58F7E8FBD8FB527
S113102080628FBD80E00FC08FB580648FBD8FB5A7
S113103080688FBD8FB580618FBD8FB580628FBD95
S113104080E001C081E090859ABD91859BBD0895A3
S11310508FB581608FBD8FB58D7F8FBD8EB580615B
S11310608EBD8EB5877F8EBD848181110EC08FB5F4
S11310708F7B8FBD8FB58F778FBD8FB58F7E8FBDE3
S11310808FB58F7D8FBD80E031C0813071F48FB515
S113109080648FBD8FB58F778FBD8FB580618FBD15
S11310A08FB58F7D8FBD80E021C0823071F48FB504
S11310B08F7B8FBD8FB580688FBD8FB58F7E8FBDC1
S11310C08FB580628FBD80E011C0833071F48FB51D
S11310D080648FBD8FB580688FBD8FB580618FBDF3
S11310E08FB580628FBD80E001C081E090859ABD9C
S11310F091859BBD08958FB588608FBD8FB5846041
S11311008FBD8FB58E7F8FBD8FB58D7F8FBD8EB513
S113111080618EBD8EB5877F8EBD838181110EC0A7
S11311208FB58F7B8FBD8FB58F778FBD8FB58F7E3A
S11311308FBD8FB58F7D8FBD80E031C0813071F45C
S11311408FB580648FBD8FB58F778FBD8FB580616C
S11311508FBD8FB58F7D8FBD80E021C0823071F44B
S11311608FB58F7B8FBD8FB580688FBD8FB58F7E18
S11311708FBD8FB580628FBD80E011C0833071F464
S11311808FB580648FBD8FB580688FBD8FB580614A
S11311908FBD8FB580628FBD80E001C081E09085F6
S11311A09ABD91859BBD99B7906199BF089591307F
S11311B0D9F030F0923009F469C09330F1F1ADC048
S11311C085B5806885BD85B58F7B85BD85B5877FF1
S11311D085BD85B58F7E85BD85B58F7D85BD89B778
S11311E0806489BF80E0089585B5806485BD85B538
S11311F0877F85BD8581811108C085B58F7E85BDBA
S113120085B58F7D85BD80E015C0823041F485B5FC
S11312108F7E85BD85B5806285BD80E00BC083303F
S113122041F485B5806185BD85B5806285BD80E06A
S113123001C081E0908593BD089585B5806485BD26
S113124085B5886085BD8481811108C085B58F7E90
S113125085BD85B58F7D85BD80E015C0823041F4A4
S113126085B58F7E85BD85B5806285BD80E00BC068
S1131270833041F485B5806185BD85B5806285BDC7
S113128080E001C081E0908593BD089585B58068B4
S113129085BD85B58F7B85BD85B5886085BD83811A
S11312A0811108C085B58F7E85BD85B58F7D85BDCF
S11312B080E01FC0813041F485B5806185BD85B56E
S11312C08F7D85BD80E015C0823041F485B58F7E69
S11312D085BD85B5806285BD80E00BC0833041F457
S11312E085B5806185BD85B5806285BD80E001C01E
S11312F081E0908593BD99B7906899BF089581E086
S1131300089581E0089581E0089581E0089581E0E1
S1131310089581E0089581E0089581E008951F9281
S11313200F920FB60F9211242F933F934F935F9315
S11313306F937F938F939F93AF93BF93EF93FF9399
S11313408091940090919500892B41F088B78B7F10
S113135088BFE0919400F09195000995FF91EF9179
S1131360BF91AF919F918F917F916F915F914F91B9
S11313703F912F910F900FBE0F901F9018951F92C1
S11313800F920FB60F9211242F933F934F935F93B5
S11313906F937F938F939F93AF93BF93EF93FF9339
S11313A08091960090919700892B41F088B78E7FA9
S11313B088BFE0919600F09197000995FF91EF9115
S11313C0BF91AF919F918F917F916F915F914F9159
S11313D03F912F910F900FBE0F901F90189563307F
S11313E0A8F40097A9F0613059F020F0623091F030
S11313F081E00895909397008093960080E008958B
S1131400909395008093940080E0089581E008957E
S113141081E0089580E00895009799F1FC0120810E
S1131420233088F53281343080F53381343078F5D7
S11314303481343070F5213069F018F02230C1F075
S11314402AC012BE13BE1CBEFC01268122BF0E940C
S1131450E80608951CBC1DBC1FBC1EBC1BBC1ABCEA
S1131460FC01268137813DBD2CBD0E94E80608950C
S113147014BC15BC13BCFC01268124BD0E94E806E3
S1131480089581E0089581E0089581E0089581E060
S1131490089581E0089581E008958A3048F4633026
S11314A048F4962F682F7894892F0E94A5050895F3
S11314B081E0089581E00895833080F4813039F02B
S11314C018F0823041F00CC062BF80E008957DBD09
S11314D06CBD80E0089564BD80E0089581E00895C6
S11314E081E00895833038F5813079F018F0823046
S11314F0B9F023C083B78E7F83BF83B78D7F83BF4B
S113150083B78B7F83BF80E008958EB58E7F8EBDB9
S11315108EB58D7F8EBD8EB58B7F8EBD80E0089598
S113152085B58B7F85BD85B58D7F85BD85B58E7F62
S113153085BD80E0089581E0089581E00895EE0F6F
S1111540FF1F0590F491E02D0994F894FFCF5D
S113154E010000F000000078000100BCF000006D06
S113155E000003040000010303030200050006005B
S107156E070100006D
S9030000FC
